:020000040800F2
:10000000000002206D100008A90F0008AF0F0008C3
:10001000B50F0008BB0F0008C10F0008000000006A
:10002000000000000000000000000000C70F0008F2
:10003000D50F000800000000E30F0008F10F0008D2
:10004000BD100008BD100008BD100008BD1000085C
:10005000BD100008BD100008FD0F0008BD1000080D
:10006000BD100008BD100008BD100008BD1000083C
:10007000BD100008BD100008BD100008BD1000082C
:10008000BD100008BD100008BD10000800000000F1
:10009000000000000000000000000000BD1000088B
:1000A000BD100008BD100008BD100008BD100008FC
:1000B0000D100008BD100008BD100008BD1000089C
:1000C000BD100008BD100008BD100008BD100008DC
:1000D000BD10000821100008BD100008000000003D
:1000E000BD100008BD100008BD1000080000000091
:1000F000000000000000000000000000BD1000082B
:1001000000000000BD100008BD100008BD10000870
:1001100000000000000000000000000000000000DF
:1001200035100008BD100008BD100008BD10000803
:10013000BD100008000000000000000000000000EA
:10014000000000000000000000000000BD100008DA
:10015000BD100008BD100008BD100008BD1000084B
:10016000BD100008BD1000080000000000000000E5
:10017000000000000000000000000000000000007F
:1001800000000000BD10000800000000000000009A
:08019000BD100008BD100008BD
:1001980010B5054C237833B9044B13B10448AFF3B9
:1001A80000800123237010BD1C0000200000000007
:1001B800F449000808B5034B1BB103490348AFF3E2
:1001C800008008BD0000000020000020F44900085D
:1001D80053B94AB9002908BF00281CBF4FF0FF31A6
:1001E8004FF0FF3000F070B9ADF1080C6DE904CEA6
:1001F80000F006F8DDF804E0DDE9022304B07047FA
:100208002DE9F047089E0D4604460F46002B4AD1BB
:100218008A42944665D9B2FA82F343B102FA03FCE2
:10022800C3F120029F4020FA02F217439C404FEA94
:100238001C4E1FFA8CF5B7FBFEF1220C0EFB117752
:1002480042EA074201FB05F090420AD91CEB020280
:1002580001F1FF3780F01C81904240F21981023988
:100268006244121AA4B2B2FBFEF00EFB102244EA5A
:10027800024400FB05F5A5420AD91CEB040400F171
:10028800FF3280F00781A54240F2048164440238BD
:1002980040EA0140641B00211EB1DC400023C6E98E
:1002A8000043BDE8F0878B4208D9002E00F0ED80AE
:1002B8000021C6E900050846BDE8F087B3FA83F1D6
:1002C800002949D1AB4202D3824200F2F880841A55
:1002D80065EB030201201746002EE2D0C6E900476D
:1002E800DFE702B9FFDEB2FA82F3002B40F090801C
:1002F8008A1A4FEA1C471FFA8CFE0121B2FBF7F558
:1003080007FB1520220C42EA00420EFB05F0904242
:1003180008D91CEB020205F1FF3802D2904200F224
:10032800CB804546121AA4B2B2FBF7F007FB1022A5
:1003380044EA02440EFB00FEA64508D91CEB04045F
:1003480000F1FF3202D2A64500F2BB801046A4EBB2
:100358000E0440EA05409FE7C1F120078B4022FACE
:1003680007FC4CEA030C05FA01F420FA07F3FD40F8
:100378004FEA1C492343B5FBF9F81FFA8CFE09FB29
:1003880018551C0C44EA054408FB0EF5A54202FA70
:1003980001F200FA01F00BD91CEB040408F1FF3A52
:1003A80080F08880A54240F28580A8F10208644464
:1003B800641B9DB2B4FBF9F309FB134445EA0444FA
:1003C80003FB0EFEA64508D91CEB040403F1FF3518
:1003D8006CD2A6456AD9023B644443EA0843A3FBAE
:1003E8000295A4EB0E04AC42C846AE4656D353D091
:1003F80056B1B0EB080264EB0E0404FA07F7CA40E2
:10040800CC401743C6E9007418460021BDE8F087C0
:10041800C3F1200102FA03FC20FA01F225FA01F1E6
:100428009D402A434FEA1C471FFA8CFEB1FBF7F0A8
:1004380007FB1015110C41EA054100FB0EF58D4232
:1004480004FA03F408D91CEB010100F1FF382FD29C
:100458008D422DD902386144491B92B2B1FBF7F5A0
:1004680007FB151142EA014205FB0EF1914208D93A
:100478001CEB020205F1FF3816D2914214D9023D55
:100488006244521A45EA004138E73146304608E7E7
:100498003946E6E61046FBE64845A9D2B9EB02081C
:1004A80065EB0C0E013BA3E74546EAE72B4694E7CC
:1004B8004046D1E7D0467BE7023D624432E7084632
:1004C8000AE76444023842E7704700BF80B582B04B
:1004D80000AF00F0F1FD00F051F800F003FA00F071
:1004E800E1F900F0B5F900F067F900F0AFF81C4841
:1004F80002F0E2FD4FF47A730D221A491A4803F00C
:100508001EFA01221949184803F0ABFA4FF47A7021
:1005180000F044FE00237B6007E0154A7B68002159
:1005280022F813107B6801337B607B68072BF4DDAE
:1005380008220F490F4800F099FE052000F02EFE12
:100548000D4B1B6801330C4A13600B4B1B6842F2BE
:100558000F729342ECD9084B00221A60E8E700BFFB
:10056800E000002000000020280100209401002065
:100578006C010020380000209001002080B594B064
:1005880000AF07F1200330220021184604F002FAD8
:1005980007F10C0300221A605A609A60DA601A6147
:1005A8000023BB60274B1B6C264A43F0805313641F
:1005B800244B1B6C03F08053BB60BB6800237B603B
:1005C800214B1B68204A43F4404313601E4B1B68B1
:1005D80003F440437B607B6801233B624FF4803324
:1005E8007B620223BB634FF48003FB630C233B64F1
:1005F80060237B640223BB640423FB6407F12003AC
:10060800184602F0B1F80346002B01D000F090FB29
:100618000F23FB6002233B6100237B614FF480536F
:10062800BB610023FB6107F10C030321184602F0AC
:1006380013FB0346002B01D000F07AFB00BF5037B4
:10064800BD4680BD003802400070004080B584B0CF
:1006580000AF3B4600221A605A609A60DA60534B3A
:10066800534A1A60514B4FF480325A604F4B4FF047
:1006780080729A604D4B01221A614C4B00221A7607
:100688004A4B002283F82020484B0022DA62474B6D
:10069800484A9A62454B0022DA60444B0822DA61E4
:1006A800424B002283F83020404B01225A613F48D8
:1006B80000F098FD0346002B01D000F039FB012320
:1006C8003B6001237B600223BB603B4619463748E9
:1006D80000F0D0FE0346002B01D000F029FB0223D6
:1006E8003B6002237B603B461946304800F0C2FE5F
:1006F8000346002B01D000F01BFB03233B600323C0
:100708007B603B461946294800F0B4FE0346002B9F
:1007180001D000F00DFB04233B6004237B603B46C3
:100728001946224800F0A6FE0346002B01D000F02F
:10073800FFFA05233B6005237B603B4619461B48AF
:1007480000F098FE0346002B01D000F0F1FA0623D2
:100758003B6006237B603B461946144800F08AFE3E
:100768000346002B01D000F0E3FA07233B60072380
:100778007B603B4619460D4800F07CFE0346002B83
:1007880001D000F0D5FA08233B6008237B603B4684
:100798001946064800F06EFE0346002B01D000F013
:1007A800C7FA00BF1037BD4680BD00BF3800002023
:1007B800002001400100000F80B586B000AF07F1AE
:1007C800080300221A605A609A60DA603B460022E9
:1007D8001A605A601D4B4FF080421A601B4B002272
:1007E8005A601A4B00229A60184B42F20F72DA6074
:1007F800164B00221A61154B00229A61134802F029
:100808000BFC0346002B01D000F092FA4FF4805302
:10081800BB6007F1080319460C4802F0B7FD034610
:10082800002B01D000F084FA00233B6000237B609A
:100838003B461946054802F0B3FF0346002B01D09A
:1008480000F076FA00BF1837BD4680BDE0000020F2
:1008580080B500AF114B124A1A60104B4FF4165274
:100868005A600E4B00229A600C4B0022DA600B4B48
:1008780000221A61094B0C225A61084B00229A6126
:10088800064B0022DA61054803F00CF80346002BFA
:1008980001D000F04DFA00BF80BD00BF2801002044
:1008A8000010014080B582B000AF00237B600C4B84
:1008B8001B6B0B4A43F480031363094B1B6B03F454
:1008C80080037B607B6800220021382001F05DF9FD
:1008D800382001F076F900BF0837BD4680BD00BF5B
:1008E8000038024080B58AB000AF07F11403002237
:1008F8001A605A609A60DA601A6100233B61324BD1
:100908001B6B314A43F0040313632F4B1B6B03F03B
:1009180004033B613B690023FB602B4B1B6B2A4A9A
:1009280043F080031363284B1B6B03F08003FB60C9
:10093800FB680023BB60244B1B6B234A43F0010375
:100948001363214B1B6B03F00103BB60BB680023DF
:100958007B601D4B1B6B1C4A43F0020313631A4B4D
:100968001B6B03F002037B607B6800224FF400518D
:10097800164801F0C7FE4FF400537B610123BB61A9
:100988000123FB6100233B6207F1140319460F485A
:1009980001F034FD01237B614FF40413BB61012393
:1009A800FB6107F114031946094801F027FD0022ED
:1009B8000021062001F0E9F8062001F002F900BF45
:1009C8002837BD4680BD00BF0038024000080240FD
:1009D8000000024080B485B000AF0023FB810023F3
:1009E800FB710023BB7100237B73744B00221A80B8
:1009F8000023BB6030E0724ABB6832F81330A3F5BD
:100A080061739BB219B26F4ABB6822F813106D4A22
:100A1800BB6832F91330002B04DA6A4ABB6800213C
:100A280022F81310674ABB6832F913309AB2634B45
:100A3800B3F900309BB213449BB21AB25F4B1A80D1
:100A4800604ABB6832F91330002B02D07B7B01333C
:100A58007B73BB680133BB60BB68072BCBDD594B8D
:100A6800B3F904309AB2574BB3F900309BB2194628
:100A78009B00CB1A99B2534BB3F902309BB218467C
:100A8800C003C31A5B009BB20B449BB2D31A9AB241
:100A98004C4BB3F90A309BB2D31A9AB2494BB3F90B
:100AA8000E309BB219469B00CB1A99B2454BB3F94D
:100AB8000C309BB25B009BB2CB1A9BB213449BB227
:100AC800FB81404BB3F90630002B04D03D4BB3F902
:100AD8000830002B03D1B7F90E30002B02D07B7BF6
:100AE800042B02D9384B01221A70374B93F9003086
:100AF800002B0FD1B7F90E30002B03DD334B012249
:100B08001A7042E0B7F90E30002B3EDA2F4BFF2265
:100B18001A703AE07B7B002B0AD07B7B022B07D82C
:100B2800264BB3F90030952B02DD274B00221A70B3
:100B3800264B93F90030012B10D14FF4FA73FB8147
:100B4800204BB3F90030002B08D07B7B002B05D05D
:100B58007B7B022B02D81C4B00221A701B4B93F98B
:100B68000030B3F1FF3F10D14FF60C63FB81154BFA
:100B7800B3F90E30002B08D07B7B002B05D07B7B94
:100B8800022B02D8104B00221A70B7F90E3013F559
:100B9800FA7F03DA4FF60C63FB8107E0B7F90E30F2
:100BA800B3F5FA7F02DD4FF4FA73FB81B7F90E3023
:100BB80018461437BD465DF8047B70478C01002049
:100BC8006C0100207C0100208E0100200F00002015
:100BD80080B485B000AFF860B9607A603B60FA68AD
:100BE800BB68D31AB9693A688A1A03FB02F27968B2
:100BF800BB68CB1A92FBF3F3DAB23B68DBB213445F
:100C0800DBB218461437BD465DF8047B7047000018
:100C180080B584B000AF0346FB7173233B73FB7947
:100C28007B730023BB7307F10C014FF47A73032223
:100C3800034802F084FE00BF1037BD4680BD00BFE8
:100C48002801002080B582B000AF78607B68134A25
:100C580093421ED1124B1B78DBB2732B14D1114B6C
:100C68001B78DBB21846FFF7D3FF0F4B1B78DBB2BC
:100C78000133DAB20C4B1A700B4B1B78DBB2642BC6
:100C880002D9094B01221A7001220549034802F0D2
:100C9800E8FE00BF0837BD4680BD00BF2801002020
:100CA80094010020980100200E00002080B483B039
:100CB80000AF786000BF0C37BD465DF8047B704715
:100CC80080B483B000AF0346FB80FB88012B02D1C0
:100CD800044BFF221A7000BF0C37BD465DF8047B39
:100CE800704700BF0D00002080B584B002AF786067
:100CF800FFF770FE03461A460A4B1A80094BB3F9F0
:100D0800003018466523009301234FF4FA72064910
:100D1800FFF75EFF03461A46044B1A7000BF0837F8
:100D2800BD4680BD960100200CFEFFFF9801002003
:100D380080B400AF72B600BFFEE7000080B483B095
:100D480000AF00237B60104B5B6C0F4A43F4804379
:100D580053640D4B5B6C03F480437B607B6800231A
:100D68003B60094B1B6C084A43F080531364064BE5
:100D78001B6C03F080533B603B6800BF0C37BD46DB
:100D88005DF8047B704700BF0038024080B58AB028
:100D980000AF786007F1140300221A605A609A6065
:100DA800DA601A617B681B683C4A934271D1002360
:100DB8003B613B4B5B6C3A4A43F480735364384B5A
:100DC8005B6C03F480733B613B690023FB60344B2D
:100DD8001B6B334A43F001031363314B1B6B03F066
:100DE8000103FB60FB680023BB602D4B1B6B2C4A87
:100DF80043F0020313632A4B1B6B03F00203BB602F
:100E0800BB68FE237B610323BB610023FB6107F101
:100E180014031946234801F0F1FA01237B610323E7
:100E2800BB610023FB6107F1140319461E4801F05A
:100E3800E5FA1E4B1E4A1A601C4B00225A601B4BD7
:100E480000229A60194B0022DA60184B4FF4806236
:100E58001A61164B4FF400625A61144B4FF400525A
:100E68009A61124B4FF48072DA61104B00221A62B9
:100E78000E4B00225A620D4800F0BEFE0346002BBE
:100E880001D0FFF755FF7B68084A9A63074A7B68D9
:100E9800936300BF2837BD4680BD00BF00200140D6
:100EA8000038024000000240000402408000002098
:100EB8001064024080B584B000AF78607B681B681E
:100EC800B3F1804F15D10023FB600C4B1B6C0B4A10
:100ED80043F001031364094B1B6C03F00103FB602F
:100EE800FB68002200211C2000F04FFE1C2000F0AF
:100EF80068FE00BF1037BD4680BD00BF0038024005
:100F080080B58AB000AF786007F1140300221A6038
:100F18005A609A60DA601A617B681B681D4A9342BE
:100F280034D100233B611C4B5B6C1B4A43F010031C
:100F38005364194B5B6C03F010033B613B6900235E
:100F4800FB60154B1B6B144A43F001031363124BF0
:100F58001B6B03F00103FB60FB684FF4C0637B610C
:100F68000223BB610023FB6103233B6207237B62EF
:100F780007F114031946094801F040FA002200213C
:100F8800252000F002FE252000F01BFE00BF2837B8
:100F9800BD4680BD001001400038024000000240FC
:100FA80080B400AFFEE780B400AFFEE780B400AFC6
:100FB800FEE780B400AFFEE780B400AFFEE780B480
:100FC80000AF00BFBD465DF8047B704780B400AF3A
:100FD80000BFBD465DF8047B704780B400AF00BF1A
:100FE800BD465DF8047B704780B500AF00F0B6F8E9
:100FF80000BF80BD80B500AF012001F09DFB00BFA0
:1010080080BD000080B500AF024802F0B7F800BF0D
:1010180080BD00BFE000002080B500AF024802F0AC
:1010280051FD00BF80BD00BF2801002080B500AF82
:10103800024800F079FF00BF80BD00BF800000209B
:1010480080B400AF064BD3F88830054A43F47003E8
:10105800C2F8883000BFBD465DF8047B704700BF0A
:1010680000ED00E0DFF834D00D480E490E4A0023A9
:1010780002E0D458C4500433C4188C42F9D30B4A44
:101088000B4C002301E013600432A242FBD3FFF7AC
:10109800D7FF03F087FCFFF719FA7047000002201A
:1010A800000000201C0000203C4A00081C00002012
:1010B800A0010020FEE7000080B500AF0E4B1B68C2
:1010C8000D4A43F4007313600B4B1B680A4A43F440
:1010D80080631360084B1B68074A43F480731360EE
:1010E800032000F047FD0F2000F008F8FFF726FE68
:1010F8000023184680BD00BF003C024080B582B086
:1011080000AF7860124B1A68124B1B7819464FF4DF
:101118007A73B3FBF1F3B2FBF3F3184600F05FFD0B
:101128000346002B01D001230EE07B680F2B0AD861
:10113800002279684FF0FF3000F027FD064A7B68EF
:101148001360002300E0012318460837BD4680BD20
:1011580010000020180000201400002080B400AF08
:10116800064B1B781A46064B1B681344044A136047
:1011780000BFBD465DF8047B704700BF1800002023
:101188009C01002080B400AF034B1B681846BD4685
:101198005DF8047B704700BF9C01002080B584B0D7
:1011A80000AF7860FFF7EEFFB8607B68FB60FB6814
:1011B800B3F1FF3F05D00A4B1B781A46FB6813446E
:1011C800FB6000BFFFF7DEFF0246BB68D31AFA6870
:1011D8009A42F7D800BF00BF1037BD4680BD00BF98
:1011E8001800002080B584B000AF78600023FB733E
:1011F8007B68002B01D1012333E07B681B6C002B3B
:1012080009D17868FFF7C2FD7B6800225A647B68C1
:10121800002283F83C207B681B6C03F01003002B32
:1012280018D17B681B6C23F4885323F0020343F026
:1012380002027B681A64786800F04EFA7B68002224
:101248005A647B681B6C23F0030343F001027B683C
:101258001A6401E00123FB737B68002283F83C20B9
:10126800FB7B18461037BD4680BD000080B586B0B0
:1012780000AFF860B9607A6000233B61FB6893F8BF
:101288003C30012B01D10223CEE0FB68012283F818
:101298003C20FB681B689B6803F00103012B18D0F6
:1012A800FB681B689A68FB681B6842F001029A6039
:1012B8005F4B1B685F4AA2FB03239A0C13465B0033
:1012C80013443B6102E03B69013B3B613B69002BF6
:1012D800F9D1FB681B689B6803F48073B3F5807FC2
:1012E80007D1FB681B689A68FB681B6822F4807248
:1012F8009A60FB681B689B6803F00103012B40F0B0
:101308008680FB681B6C23F4E06323F0010343F43D
:101318008072FB681A64FB681B685B6803F480636F
:10132800002B07D0FB681B6C23F4405343F4805216
:10133800FB681A64FB681B6C03F48053B3F5805F89
:1013480006D1FB685B6C23F00602FB685A6402E076
:10135800FB6800225A64FB68002283F83C20364B65
:101368007B61FB689B6B354ADA63FB689B6B344A8D
:101378001A64FB689B6B334ADA64FB681B686FF07E
:1013880022021A60FB681B685A68FB681B6842F0F7
:1013980080625A60FB681B689A68FB681B6842F4A5
:1013A80080729A60FB68986BFB681B684C3319461F
:1013B800BA687B6800F0CEFC7B695B6803F01F03AA
:1013C800002B0FD1FB681B689B6803F04053002B70
:1013D80029D1FB681B689A68FB681B6842F0804249
:1013E8009A6020E0FB681B68174A93421BD1FB6890
:1013F8001B689B6803F04053002B14D1FB681B68E3
:101408009A68FB681B6842F080429A600BE0FB68B0
:101418001B6C43F01002FB681A64FB685B6C43F0BA
:101428000102FB685A64002318461837BD4680BD80
:101438001000002083DE1B4300230140D918000858
:1014480093190008AF1900080020014080B483B048
:1014580000AF786000BF0C37BD465DF8047B70476D
:1014680080B483B000AF786000BF0C37BD465DF82C
:10147800047B704780B485B000AF78603960002382
:10148800BB607B6893F83C30012B01D1022313E148
:101498007B68012283F83C203B681B68092B25D90F
:1014A8007B681B68D9683B681B689BB21A46134661
:1014B8005B0013441E3B072202FA03F3DA437B68FE
:1014C8001B680A40DA607B681B68D9683B689A68C1
:1014D8003B681B689BB2184603465B0003441E3BEF
:1014E8009A407B681B680A43DA6022E07B681B68C5
:1014F80019693B681B689BB21A4613465B00134484
:10150800072202FA03F3DA437B681B680A401A6170
:101518007B681B6819693B689A683B681B689BB2C3
:10152800184603465B0003449A407B681B680A43DD
:101538001A613B685B68062B24D87B681B68596B6B
:101548003B685A6813469B001344053B1F2202FA66
:1015580003F3DA437B681B680A405A637B681B689D
:10156800596B3B681B689BB218463B685A68134620
:101578009B001344053B00FA03F27B681B680A438F
:101588005A634CE03B685B680C2B24D87B681B686B
:10159800196B3B685A6813469B001344233B1F2270
:1015A80002FA03F3DA437B681B680A401A637B6814
:1015B8001B68196B3B681B689BB218463B685A68E6
:1015C80013469B001344233B00FA03F27B681B6815
:1015D8000A431A6323E07B681B68D96A3B685A6828
:1015E80013469B001344413B1F2202FA03F3DA43DC
:1015F8007B681B680A40DA627B681B68D96A3B68AB
:101608001B689BB218463B685A6813469B001344F4
:10161800413B00FA03F27B681B680A43DA62294BF4
:10162800FB607B681B68284A93420FD13B681B68A4
:10163800122B0BD1FB685B6823F40002FB685A602D
:10164800FB685B6843F48002FB685A607B681B6830
:101658001D4A93422BD13B681B681C4A934203D016
:101668003B681B68112B22D1FB685B6823F480025E
:10167800FB685A60FB685B6843F40002FB685A60C9
:101688003B681B68114A934211D1114B1B68114AE0
:10169800A2FB03239A0C13469B0013445B00BB6018
:1016A80002E0BB68013BBB60BB68002BF9D17B68DB
:1016B800002283F83C20002318461437BD465DF805
:1016C800047B7047002301400020014012000010F5
:1016D8001000002083DE1B4380B485B000AF786023
:1016E800794BFB60FB685B6823F44032FB685A6007
:1016F800FB685A687B685B681A43FB685A607B68BA
:101708001B685A687B681B6822F480725A607B6881
:101718001B6859687B681B691A027B681B680A4347
:101728005A607B681B685A687B681B6822F04072A5
:101738005A607B681B6859687B689A687B681B6875
:101748000A435A607B681B689A687B681B6822F4A6
:1017580000629A607B681B6899687B68DA687B68B6
:101768001B680A439A607B689B6A584A934222D056
:101778007B681B689A687B681B6822F070629A60B5
:101788007B681B6899687B689A6A7B681B680A4350
:101798009A607B681B689A687B681B6822F04052D5
:1017A8009A607B681B6899687B68DA6A7B681B6843
:1017B8000A439A600FE07B681B689A687B681B681D
:1017C80022F070629A607B681B689A687B681B6865
:1017D80022F040529A607B681B689A687B681B6895
:1017E80022F002029A607B681B6899687B681B7EFE
:1017F8005A007B681B680A439A607B6893F820301C
:10180800002B1BD07B681B685A687B681B6842F4F6
:1018180000625A607B681B685A687B681B6822F400
:1018280060425A607B681B6859687B685B6A013B49
:101838005A037B681B680A435A6007E07B681B6889
:101848005A687B681B6822F400625A607B681B68D0
:10185800DA6A7B681B6822F47002DA627B681B68AC
:10186800D96A7B68DB69013B1A057B681B680A43F8
:10187800DA627B681B689A687B681B6822F40072CE
:101888009A607B681B6899687B6893F830305A02C5
:101898007B681B680A439A607B681B689A687B6848
:1018A8001B6822F480629A607B681B6899687B6871
:1018B8005B699A027B681B680A439A6000BF143709
:1018C800BD465DF8047B7047002301400100000F0E
:1018D80080B584B000AF78607B689B6BFB60FB6869
:1018E8001B6C03F05003002B3CD1FB681B6C43F4CA
:1018F8000072FB681A64FB681B689B6803F040531E
:10190800002B2BD1FB681B7E002B27D1FB681B68A3
:10191800DB6A03F47003002B06D0FB681B689B6826
:1019280003F48063002B19D1FB681B685A68FB68B5
:101938001B6822F020025A60FB681B6C23F480723B
:10194800FB681A64FB681B6C03F48053002B05D1F9
:10195800FB681B6C43F00102FB681A64F868FFF728
:10196800C3F90EE0FB681B6C03F01003002B03D0D7
:10197800F868FFF775FD04E0FB689B6BDB6C786823
:10198800984700BF1037BD4680BD80B584B000AF12
:1019980078607B689B6BFB60F868FFF757FD00BFBA
:1019A8001037BD4680BD80B584B000AF78607B68D5
:1019B8009B6BFB60FB6840221A64FB685B6C43F01E
:1019C8000402FB685A64F868FFF74AFD00BF103745
:1019D800BD4680BD80B485B000AF78607B6803F0F9
:1019E8000703FB600C4BDB68BB60BA684FF6FF036C
:1019F8001340BB60FB681A02BB68134343F0BF6324
:101A080043F40033BB60044ABB68D36000BF14379B
:101A1800BD465DF8047B704700ED00E080B400AF80
:101A2800044BDB681B0A03F007031846BD465DF844
:101A3800047B704700ED00E080B483B000AF03463C
:101A4800FB7197F90730002B0BDBFB7903F01F02C2
:101A5800074997F907305B09012000FA02F241F8BB
:101A6800232000BF0C37BD465DF8047B704700BFDC
:101A780000E100E080B483B000AF03463960FB7139
:101A880097F90730002B0ADB3B68DAB20C4997F963
:101A980007301201D2B20B4483F800230AE03B68F6
:101AA800DAB20849FB7903F00F03043B1201D2B202
:101AB8000B441A7600BF0C37BD465DF8047B7047AF
:101AC80000E100E000ED00E080B489B000AFF8600C
:101AD800B9607A60FB6803F00703FB61FB69C3F137
:101AE8000703042B28BF0423BB61FB690433062BBF
:101AF80002D9FB69033B00E000237B614FF0FF3212
:101B0800BB6902FA03F3DA43BB681A407B699A405F
:101B18004FF0FF317B6901FA03F3D9437B680B402F
:101B2800134318462437BD465DF8047B7047000010
:101B380080B582B000AF78607B68013BB3F1807FED
:101B480001D301230FE00A4A7B68013B53600F2150
:101B58004FF0FF30FFF78EFF054B00229A60044BD1
:101B680007221A60002318460837BD4680BD00BF0B
:101B780010E000E080B582B000AF78607868FFF7C9
:101B880029FF00BF0837BD4680BD80B586B000AFCD
:101B98000346B9607A60FB7300237B61FFF73EFF61
:101BA80078617A68B9687869FFF78EFF024697F915
:101BB8000F3011461846FFF75DFF00BF1837BD46C6
:101BC80080BD80B582B000AF0346FB7197F907303E
:101BD8001846FFF731FF00BF0837BD4680BD80B506
:101BE80082B000AF78607868FFF7A2FF0346184616
:101BF8000837BD4680BD000080B586B000AF78606C
:101C080000237B61FFF7BEFA38617B68002B01D1A6
:101C1800012399E07B68022283F835207B68002243
:101C280083F834207B681B681A687B681B6822F07D
:101C380001021A600FE0FFF7A5FA02463B69D31AC2
:101C4800052B08D97B6820225A657B68032283F814
:101C58003520032378E07B681B681B6803F00103C9
:101C6800002BE8D17B681B681B687B617A69384B5D
:101C780013407B617B685A687B689B681A437B6862
:101C8800DB681A437B681B691A437B685B691A43E4
:101C98007B689B691A437B68DB691A437B681B6A0C
:101CA80013437A6913437B617B685B6A042B07D112
:101CB8007B68DA6A7B681B6B13437A6913437B6121
:101CC8007B681B687A691A607B681B685B697B6143
:101CD8007B6923F007037B617B685B6A7A6913433E
:101CE8007B617B685B6A042B17D17B689B6A7A6986
:101CF80013437B617B68DB6A002B0ED0786800F0A9
:101D080001FB0346002B08D07B6840225A657B689C
:101D1800012283F83520012316E07B681B687A6965
:101D28005A61786800F0B8FA0346FB607B68DB6D9F
:101D38003F229A40FB689A607B6800225A657B685C
:101D4800012283F83520002318461837BD4680BD88
:101D58003F8010F080B586B000AFF860B9607A6057
:101D68003B600023FB75FB689B6D3B61FB6893F848
:101D78003430012B01D1022340E0FB68012283F8B3
:101D88003420FB6893F83530DBB2012B2FD1FB6888
:101D9800022283F83520FB6800225A653B687A687E
:101DA800B968F86800F04AFAFB68DB6D3F229A4090
:101DB8003B699A60FB681B681A68FB681B6842F0FD
:101DC80016021A60FB681B6C002B07D0FB681B68A7
:101DD8001A68FB681B6842F008021A60FB681B68F7
:101DE8001A68FB681B6842F001021A6005E0FB688C
:101DF800002283F834200223FB75FB7D1846183730
:101E0800BD4680BD80B584B000AF78607B689B6DAF
:101E1800FB60FFF7B7F9B8607B6893F83530DBB241
:101E2800022B08D07B6880225A657B68002283F8E1
:101E38003420012352E07B681B681A687B681B68A2
:101E480022F016021A607B681B685A697B681B6857
:101E580022F080025A617B681B6C002B03D17B68DF
:101E68009B6C002B07D07B681B681A687B681B6813
:101E780022F008021A607B681B681A687B681B6876
:101E880022F001021A6013E0FFF77CF90246BB68F2
:101E9800D31A052B0CD97B6820225A657B6803224C
:101EA80083F835207B68002283F83420032315E06B
:101EB8007B681B681B6803F00103002BE4D17B6877
:101EC800DB6D3F229A40FB689A607B68012283F8A9
:101ED80035207B68002283F8342000231846103709
:101EE800BD4680BD80B483B000AF78607B6893F84E
:101EF8003530DBB2022B04D07B6880225A6501237F
:101F08000CE07B68052283F835207B681B681A681B
:101F18007B681B6822F001021A60002318460C3700
:101F2800BD465DF8047B704780B586B000AF786029
:101F38000023BB608E4B1B688E4AA2FB03239B0ABF
:101F48007B617B689B6D3B613B691B68FB607B68C1
:101F5800DB6D08229A40FB681340002B1AD07B687F
:101F68001B681B6803F00403002B13D07B681B68F5
:101F78001A687B681B6822F004021A607B68DB6DB4
:101F880008229A403B699A607B685B6D43F00102C6
:101F98007B685A657B68DB6D01229A40FB681340B9
:101FA800002B12D07B681B685B6903F08003002B51
:101FB8000BD07B68DB6D01229A403B699A607B6895
:101FC8005B6D43F002027B685A657B68DB6D042217
:101FD8009A40FB681340002B12D07B681B681B6873
:101FE80003F00203002B0BD07B68DB6D04229A40C0
:101FF8003B699A607B685B6D43F004027B685A65B5
:102008007B68DB6D10229A40FB681340002B43D09D
:102018007B681B681B6803F00803002B3CD07B68B7
:10202800DB6D10229A403B699A607B681B681B68CD
:1020380003F48023002B18D07B681B681B6803F40B
:102048000023002B08D17B681B6C002B24D07B68F5
:102058001B6C786898471FE07B689B6C002B1BD033
:102068007B689B6C7868984716E07B681B681B68E0
:1020780003F48073002B07D17B681B681A687B68A0
:102088001B6822F008021A607B681B6C002B03D0C7
:102098007B681B6C786898477B68DB6D20229A40C8
:1020A800FB681340002B00F08F807B681B681B685F
:1020B80003F01003002B00F087807B68DB6D202283
:1020C8009A403B699A607B6893F83530DBB2052B00
:1020D80036D17B681B681A687B681B6822F0160279
:1020E8001A607B681B685A697B681B6822F080024B
:1020F8005A617B681B6C002B03D17B689B6C002B9F
:1021080007D07B681B681A687B681B6822F0080286
:102118001A607B68DB6D3F229A403B699A607B6856
:10212800012283F835207B68002283F834207B68FD
:102138001B6D002B7ED07B681B6D7868984779E013
:102148007B681B681B6803F48023002B1DD07B6809
:102158001B681B6803F40023002B0DD17B685B6CA4
:10216800002B31D07B685B6C786898472CE000BF07
:1021780010000020B5814E1B7B68DB6B002B23D041
:102188007B68DB6B786898471EE07B681B681B6878
:1021980003F48073002B0FD17B681B681A687B6877
:1021A8001B6822F010021A607B68012283F8352030
:1021B8007B68002283F834207B68DB6B002B03D01C
:1021C8007B68DB6B786898477B685B6D002B32D047
:1021D8007B685B6D03F00103002B22D07B6805222E
:1021E80083F835207B681B681A687B681B6822F0B7
:1021F80001021A60BB680133BB607A699A4207D34F
:102208007B681B681B6803F00103002BF2D100E018
:1022180000BF7B68012283F835207B68002283F8A1
:1022280034207B68DB6C002B05D07B68DB6C78681E
:10223800984700E000BF1837BD4680BD80B485B020
:1022480000AFF860B9607A603B60FB681B681A6889
:10225800FB681B6822F480221A60FB681B683A68D6
:102268005A60FB689B68402B08D1FB681B687A683A
:102278009A60FB681B68BA68DA6007E0FB681B684D
:10228800BA689A60FB681B687A68DA6000BF14371E
:10229800BD465DF8047B704780B485B000AF7860B8
:1022A8007B681B68DBB2103B144AA2FB03231B09A3
:1022B800FB60134AFB6813441B781A467B68DA658F
:1022C800FB68032B09D97B681B6823F47F7323F011
:1022D80003031A1D7B689A6507E07B681B6823F473
:1022E8007F7323F003037A6893657B689B6D1846B8
:1022F8001437BD465DF8047B704700BFABAAAAAA95
:10230800244A000880B485B000AF78600023FB73CE
:102318007B689B6ABB607B689B69002B1FD1BB688D
:10232800032B56D801A252F823F000BF452300081A
:102338005723000845230008DB2300087B68DB6A75
:1023480003F08073002B46D00123FB7343E07B68C6
:10235800DB6AB3F1C07F40D10123FB733DE07B68AA
:102368009B69B3F5005F21D1BB68032B37D801A265
:1023780052F823F08D230008932300088D230008CA
:10238800A52300080123FB7330E07B68DB6A03F0B8
:102398008073002B25D00123FB7322E07B68DB6A66
:1023A800B3F1C07F1FD10123FB731CE0BB68022B74
:1023B80003D9BB68032B03D018E00123FB7315E096
:1023C8007B68DB6A03F08073002B0ED00123FB735C
:1023D8000BE000BF0AE000BF08E000BF06E000BF56
:1023E80004E000BF02E000BF00E000BFFB7B18462E
:1023F8001437BD465DF8047B704700BF80B489B0D0
:1024080000AF7860396000237B6100233B610023C3
:10241800BB610023FB6159E10122FB6902FA03F366
:102428007B613B681B687A6913403B613A697B6949
:102438009A4240F048813B685B6803F00303012B34
:1024480005D03B685B6803F00303022B30D17B683F
:102458009B68BB61FB695B00032202FA03F3DB4361
:10246800BA691340BB613B68DA68FB695B0002FA32
:1024780003F3BA691343BB617B68BA699A607B68E6
:102488005B68BB610122FB6902FA03F3DB43BA69AB
:102498001340BB613B685B681B0903F00102FB69E1
:1024A80002FA03F3BA691343BB617B68BA695A60DD
:1024B8003B685B6803F00303032B17D07B68DB687A
:1024C800BB61FB695B00032202FA03F3DB43BA69D1
:1024D8001340BB613B689A68FB695B0002FA03F32F
:1024E800BA691343BB617B68BA69DA603B685B68A9
:1024F80003F00303022B23D1FB69DA087B68083257
:1025080053F82230BB61FB6903F007039B000F22DD
:1025180002FA03F3DB43BA691340BB613B681A69EB
:10252800FB6903F007039B0002FA03F3BA6913433C
:10253800BB61FB69DA087B680832B96943F8221085
:102548007B681B68BB61FB695B00032202FA03F32B
:10255800DB43BA691340BB613B685B6803F0030265
:10256800FB695B0002FA03F3BA691343BB617B683A
:10257800BA691A603B685B6803F44033002B00F0CB
:10258800A2800023FB60574B5B6C564A43F48043A0
:102598005364544B5B6C03F48043FB60FB68524A02
:1025A800FB699B08023352F82330BB61FB6903F0D7
:1025B80003039B000F2202FA03F3DB43BA691340BB
:1025C800BB617B68494A934219D07B68484A934269
:1025D80013D07B68474A93420DD07B68464A9342A2
:1025E80007D07B68454A934201D1042308E00723BA
:1025F80006E0032304E0022302E0012300E00023B5
:10260800FA6902F0030292009340BA691343BB616E
:102618003549FB699B080233BA6941F82320384BD6
:102628009B68BB613B69DB43BA691340BB613B688C
:102638005B6803F48013002B03D0BA693B6913432A
:10264800BB612F4ABB6993602D4BDB68BB613B695B
:10265800DB43BA691340BB613B685B6803F4001352
:10266800002B03D0BA693B691343BB61244ABB6999
:10267800D360234B5B68BB613B69DB43BA6913409A
:10268800BB613B685B6803F40033002B03D0BA6975
:102698003B691343BB611A4ABB695360184B1B68FB
:1026A800BB613B69DB43BA691340BB613B685B684C
:1026B80003F48033002B03D0BA693B691343BB6131
:1026C8000F4ABB691360FB690133FB61FB690F2B80
:1026D8007FF6A2AE00BF00BF2437BD465DF8047B7D
:1026E800704700BF00380240003801400000024037
:1026F8000004024000080240000C024000100240A2
:10270800003C014080B483B000AF78600B467B800A
:1027180013467B707B78002B03D07A887B689A619C
:1027280003E07B881A047B689A6100BF0C37BD46BA
:102738005DF8047B7047000080B582B000AF0346A7
:10274800FB80084B5A69FB881340002B06D0054ACA
:10275800FB885361FB881846FEF7B2FA00BF0837BA
:10276800BD4680BD003C014080B586B000AF7860B2
:102778007B68002B01D1012367E27B681B6803F0AB
:102788000103002B75D0884B9B6803F00C03042BC6
:102798000CD0854B9B6803F00C03082B12D1824B9D
:1027A8005B6803F48003B3F5800F0BD17E4B1B6885
:1027B80003F40033002B5BD07B685B68002B57D198
:1027C800012342E27B685B68B3F5803F06D1764B14
:1027D8001B68754A43F4803313601DE07B685B68AF
:1027E800B3F5A02F0CD1704B1B686F4A43F48023BC
:1027F80013606D4B1B686C4A43F4803313600BE025
:10280800694B1B68684A23F480331360664B1B6866
:10281800654A23F4802313607B685B68002B13D020
:10282800FEF7B0FC386108E0FEF7ACFC02463B69F5
:10283800D31A642B01D9032307E25B4B1B6803F40B
:102848000033002BF0D014E0FEF79CFC386108E060
:10285800FEF798FC02463B69D31A642B01D903237F
:10286800F3E1514B1B6803F40033002BF0D100E077
:1028780000BF7B681B6803F00203002B63D04A4B40
:102888009B6803F00C03002B0BD0474B9B6803F0AD
:102898000C03082B1CD1444B5B6803F48003002B0A
:1028A80016D1414B1B6803F00203002B05D07B684F
:1028B800DB68012B01D00123C7E13B4B1B6823F0E8
:1028C800F8027B681B69DB00374913430B603AE069
:1028D8007B68DB68002B20D0344B01221A60FEF79E
:1028E80051FC386108E0FEF74DFC02463B69D31AFB
:1028F800022B01D90323A8E12B4B1B6803F0020329
:10290800002BF0D0284B1B6823F0F8027B681B696A
:10291800DB00254913430B6015E0244B00221A60A5
:10292800FEF730FC386108E0FEF72CFC02463B69F4
:10293800D31A022B01D9032387E11B4B1B6803F031
:102948000203002BF0D17B681B6803F00803002BFF
:1029580036D07B685B69002B16D0154B01221A60B4
:10296800FEF710FC386108E0FEF70CFC02463B69F4
:10297800D31A022B01D9032367E10B4B5B6F03F0DA
:102988000203002BF0D01BE0094B00221A60FEF76F
:10299800F9FB38610EE0FEF7F5FB02463B69D31AF6
:1029A800022B07D9032350E10038024000004742B8
:1029B800800E4742884B5B6F03F00203002BEAD17D
:1029C8007B681B6803F00403002B00F0978000234A
:1029D800FB75814B1B6C03F08053002B0FD1002338
:1029E800BB607D4B1B6C7C4A43F0805313647A4B6D
:1029F8001B6C03F08053BB60BB680123FB75774BEE
:102A08001B6803F48073002B18D1744B1B68734A3E
:102A180043F480731360FEF7B5FB386108E0FEF7F6
:102A2800B1FB02463B69D31A022B01D903230CE1FF
:102A38006A4B1B6803F48073002BF0D07B689B689B
:102A4800012B06D1644B1B6F634A43F001031367E4
:102A58001CE07B689B68052B0CD15F4B1B6F5E4AA3
:102A680043F0040313675C4B1B6F5B4A43F001039D
:102A780013670BE0584B1B6F574A23F0010313678A
:102A8800554B1B6F544A23F0040313677B689B68FC
:102A9800002B15D0FEF776FB38610AE0FEF772FBD3
:102AA80002463B69D31A41F28832934201D9032383
:102AB800CBE0494B1B6F03F00203002BEED014E070
:102AC800FEF760FB38610AE0FEF75CFB02463B69F3
:102AD800D31A41F28832934201D90323B5E03E4B21
:102AE8001B6F03F00203002BEED1FB7D012B05D1F8
:102AF800394B1B6C384A23F0805313647B689B69FD
:102B0800002B00F0A180344B9B6803F00C03082BCA
:102B18005CD07B689B69022B41D1314B00221A6043
:102B2800FEF730FB386108E0FEF72CFB02463B69F4
:102B3800D31A022B01D9032387E0274B1B6803F024
:102B48000073002BF0D17B68DA697B681B6A1A4333
:102B58007B685B6A9B011A437B689B6A5B08013B45
:102B68001B041A437B68DB6A1B061B4913434B6033
:102B78001B4B01221A60FEF705FB386108E0FEF7DF
:102B880001FB02463B69D31A022B01D903235CE0FF
:102B9800114B1B6803F00073002BF0D054E0104B6E
:102BA80000221A60FEF7EEFA386108E0FEF7EAFA4A
:102BB80002463B69D31A022B01D9032345E0064B91
:102BC8001B6803F00073002BF0D13DE07B689B6924
:102BD800012B07D1012338E0003802400070004083
:102BE800600047421B4B5B68FB607B689B69012B5D
:102BF80028D0FB6803F480027B68DB699A4221D104
:102C0800FB6803F03F027B681B6A9A421AD1FA6894
:102C180047F6C07313407A68526A9201934211D101
:102C2800FB6803F440327B689B6A5B08013B1B042A
:102C38009A4207D1FB6803F070627B68DB6A1B0667
:102C48009A4201D0012300E0002318461837BD46F8
:102C580080BD00BF0038024080B584B000AF786006
:102C680039607B68002B01D10123CCE0684B1B68DD
:102C780003F007033A689A420CD9654B3A68D2B216
:102C88001A70634B1B6803F007033A689A4201D035
:102C98000123B8E07B681B6803F00203002B20D0F7
:102CA8007B681B6803F00403002B05D0594B9B6815
:102CB800584A43F4E05393607B681B6803F00803A9
:102CC800002B05D0534B9B68524A43F460439360F2
:102CD800504B9B6823F0F0027B689B684D49134377
:102CE8008B607B681B6803F00103002B44D07B6872
:102CF8005B68012B07D1474B1B6803F40033002B9B
:102D080019D101237FE07B685B68022B03D07B68C5
:102D18005B68032B07D13F4B1B6803F00073002B44
:102D280009D101236FE03B4B1B6803F00203002B22
:102D380001D1012367E0374B9B6823F003027B68CE
:102D48005B68344913438B60FEF71CFAF8600AE0AD
:102D5800FEF718FA0246FB68D31A41F2883293420A
:102D680001D903234FE02B4B9B6803F00C027B68CF
:102D78005B689B009A42EBD1254B1B6803F0070365
:102D88003A689A420CD2224B3A68D2B21A70204B57
:102D98001B6803F007033A689A4201D0012332E026
:102DA8007B681B6803F00403002B08D0194B9B6851
:102DB80023F4E0527B68DB68164913438B607B6819
:102DC8001B6803F00803002B09D0124B9B6823F4FF
:102DD80060427B681B69DB000E4913438B6000F07F
:102DE80021F802460B4B9B681B0903F00F030A49A5
:102DF800CB5C22FA03F3094A1360094B1B68184697
:102E0800FEF77CF9002318461037BD4680BD00BF89
:102E1800003C0240003802400C4A00081000002024
:102E2800140000202DE9B04F90B000AF00237B6361
:102E38000023FB6300233B630023BB63594B9B6860
:102E480003F00C03082B0DD0082B00F2A180002BF7
:102E580002D0042B03D09BE0534BBB639BE0534B46
:102E6800BB6398E04F4B5B6803F03F037B634D4BBC
:102E78005B6803F48003002B28D04A4B5B689B09EE
:102E880000223B627A623B6AC3F308000021474B89
:102E980003FB01F2002300FB03F31344434AA0FBA6
:102EA8000212FA620A46BA62FA6A1344FB627B6B40
:102EB8000022BB61FA61D7E90623D7E90A01FDF7C9
:102EC80087F902460B461346FB6353E0354B5B68B4
:102ED8009B0900223B617A613B69C3F3080A4FF002
:102EE800000B52465B464FF000004FF000015901BD
:102EF80041EAD261500102460B46B2EB0A0863EB85
:102F08000B094FF000024FF000034FEA891343EA20
:102F180098634FEA8812B2EB080463EB09054FF097
:102F280000024FF00003EB0043EA5473E20014463A
:102F38001D4614EB0A033B6045EB0B037B604FF027
:102F480000024FF00003D7E9004529468B022146CD
:102F580043EA915321468A02104619467B6B0022A8
:102F6800BB60FA60D7E90223FDF732F902460B4647
:102F78001346FB630B4B5B681B0C03F00303013325
:102F88005B003B63FA6B3B6BB2FBF3F3BB6302E0A2
:102F9800054BBB6300BFBB6B18464037BD46BDE859
:102FA800B08F00BF003802400024F40040787D0153
:102FB80080B400AF034B1B681846BD465DF8047B20
:102FC800704700BF1000002080B500AFFFF7F0FF8A
:102FD8000246054B9B689B0A03F007030349CB5C39
:102FE80022FA03F3184680BD003802401C4A000844
:102FF80080B500AFFFF7DCFF0246054B9B685B0B13
:1030080003F007030349CB5C22FA03F3184680BD9B
:10301800003802401C4A000880B582B000AF7860D2
:103028007B68002B01D1012341E07B6893F83D3098
:10303800DBB2002B06D17B68002283F83C2078683D
:10304800FDF738FF7B68022283F83D207B681A6809
:103058007B6804331946104600F088FA7B68012221
:1030680083F846207B68012283F83E207B68012292
:1030780083F83F207B68012283F840207B68012287
:1030880083F841207B68012283F842207B68012273
:1030980083F843207B68012283F844207B6801225F
:1030A80083F845207B68012283F83D2000231846D9
:1030B8000837BD4680BD000080B485B000AF786099
:1030C8007B6893F83D30DBB2012B01D0012344E04B
:1030D8007B68022283F83D207B681B68DA687B687E
:1030E8001B6842F00102DA607B681B681E4A934243
:1030F80018D07B681B68B3F1804F13D07B681B68BE
:103108001A4A93420ED07B681B68194A934209D029
:103118007B681B68174A934204D07B681B68164A71
:10312800934211D17B681B689B6803F00703FB601F
:10313800FB68062B10D07B681B681A687B681B68C5
:1031480042F001021A6007E07B681B681A687B6816
:103158001B6842F001021A60002318461437BD4666
:103168005DF8047B704700BF000001400004004088
:1031780000080040000C00400040014080B582B0CB
:1031880000AF78607B681B681B6903F00203022BA1
:1031980022D17B681B68DB6803F00203022B1BD17A
:1031A8007B681B686FF002021A617B6801221A773C
:1031B8007B681B689B6903F00303002B03D07868C6
:1031C80000F0B5F905E0786800F0A7F9786800F034
:1031D800B8F97B6800221A777B681B681B6903F0C3
:1031E8000403042B22D17B681B68DB6803F004030B
:1031F800042B1BD17B681B686FF004021A617B6883
:1032080002221A777B681B689B6903F44073002BC2
:1032180003D0786800F08BF905E0786800F07DF954
:10322800786800F08EF97B6800221A777B681B6843
:103238001B6903F00803082B22D17B681B68DB6835
:1032480003F00803082B1BD17B681B686FF008028A
:103258001A617B6804221A777B681B68DB6903F0B4
:103268000303002B03D0786800F061F905E0786863
:1032780000F053F9786800F064F97B6800221A7747
:103288007B681B681B6903F01003102B22D17B6835
:103298001B68DB6803F01003102B1BD17B681B68CD
:1032A8006FF010021A617B6808221A777B681B6826
:1032B800DB6903F44073002B03D0786800F037F91A
:1032C80005E0786800F029F9786800F03AF97B6839
:1032D80000221A777B681B681B6903F00103012B26
:1032E8000ED17B681B68DB6803F00103012B07D153
:1032F8007B681B686FF001021A617868FDF7D6FCDD
:103308007B681B681B6903F08003802B0ED17B68E8
:103318001B68DB6803F08003802B07D17B681B6880
:103328006FF080021A61786800F0B2FA7B681B6857
:103338001B6903F04003402B0ED17B681B68DB68D8
:1033480003F04003402B07D17B681B686FF04002F5
:103358001A61786800F0FFF87B681B681B6903F046
:103368002003202B0ED17B681B68DB6803F0200349
:10337800202B07D17B681B686FF020021A617868E0
:1033880000F07CFA00BF0837BD4680BD80B584B028
:1033980000AF786039600023FB737B6893F83C309A
:1033A800012B01D10223B4E07B68012283F83C2081
:1033B8007B68022283F83D207B681B689B68BB60A2
:1033C800BB6823F07703BB60BB6823F47F43BB6013
:1033D8007B681B68BA689A603B681B68B3F5005F36
:1033E8003ED0B3F5005F00F28780B3F5805F00F050
:1033F8008680B3F5805F7FD8702B1AD0702B7BD86E
:10340800602B50D0602B77D8502B3CD0502B73D8E2
:10341800402B58D0402B6FD8302B64D0302B6BD832
:10342800202B60D0202B67D8002B5CD0102B5AD0D3
:1034380062E07B6818683B6899683B685A683B6833
:10344800DB6800F08DF97B681B689B68BB60BB6814
:1034580043F07703BB607B681B68BA689A604FE0EB
:103468007B6818683B6899683B685A683B68DB6802
:1034780000F076F97B681B689A687B681B6842F4E1
:1034880080429A603CE07B6818683B6859683B68F2
:10349800DB681A4600F0EAF87B681B68502118467A
:1034A80000F043F92CE07B6818683B6859683B6872
:1034B800DB681A4600F009F97B681B68602118462A
:1034C80000F033F91CE07B6818683B6859683B6872
:1034D800DB681A4600F0CAF87B681B68402118466A
:1034E80000F023F90CE07B681A683B681B681946F2
:1034F800104600F01AF903E00123FB7300E000BF57
:103508007B68012283F83D207B68002283F83C20F9
:10351800FB7B18461037BD4680BD80B483B000AF32
:10352800786000BF0C37BD465DF8047B704780B4F7
:1035380083B000AF786000BF0C37BD465DF8047BF0
:10354800704780B483B000AF786000BF0C37BD46C9
:103558005DF8047B704780B483B000AF786000BF2B
:103568000C37BD465DF8047B7047000080B485B019
:1035780000AF786039607B681B68FB607B68344A01
:1035880093420FD07B68B3F1804F0BD07B68314AF0
:10359800934207D07B68304A934203D07B682F4A16
:1035A800934208D1FB6823F07003FB603B685B68BB
:1035B800FA681343FB607B68254A93421BD07B68FB
:1035C800B3F1804F17D07B68224A934213D07B68AF
:1035D800214A93420FD07B68204A93420BD07B68E4
:1035E8001F4A934207D07B681E4A934203D07B68E8
:1035F8001D4A934208D1FB6823F44073FB603B6883
:10360800DB68FA681343FB60FB6823F080023B68C1
:103618005B691343FB607B68FA681A603B689A68C9
:103628007B68DA623B681A687B689A627B68084A3A
:10363800934203D13B681A697B681A637B6801224D
:103648005A6100BF1437BD465DF8047B704700BF60
:10365800000001400004004000080040000C004049
:1036680000400140004401400048014080B487B058
:1036780000AFF860B9607A60FB681B6A7B61FB6821
:103688001B6A23F00102FB681A62FB689B693B61B5
:103698003B6923F0F0033B617B681B013A691343E4
:1036A8003B617B6923F00A037B617A69BB6813433A
:1036B8007B61FB683A699A61FB687A691A6200BFA4
:1036C8001C37BD465DF8047B704780B487B000AFF7
:1036D800F860B9607A60FB681B6A23F01002FB6827
:1036E8001A62FB689B697B61FB681B6A3B617B69AB
:1036F80023F470437B617B681B037A6913437B6106
:103708003B6923F0A0033B61BB681B013A69134383
:103718003B61FB687A699A61FB683A691A6200BF83
:103728001C37BD465DF8047B704780B485B000AF98
:10373800786039607B689B68FB60FB6823F07003E6
:10374800FB603A68FB68134343F00703FB607B6840
:10375800FA689A6000BF1437BD465DF8047B70476D
:1037680080B487B000AFF860B9607A603B60FB68EE
:103778009B687B617B6923F47F437B613B681A020A
:103788007B681A43BB6813437A6913437B61FB6800
:103798007A699A6000BF1C37BD465DF8047B7047A4
:1037A80080B485B000AF786039607B6893F83C30AE
:1037B800012B01D1022350E07B68012283F83C20D1
:1037C8007B68022283F83D207B681B685B68FB608E
:1037D8007B681B689B68BB60FB6823F07003FB6019
:1037E8003B681B68FA681343FB607B681B68FA68D0
:1037F8005A607B681B681C4A934218D07B681B6818
:10380800B3F1804F13D07B681B68184A93420ED0DF
:103818007B681B68164A934209D07B681B68154A67
:10382800934204D07B681B68134A93420CD1BB684F
:1038380023F08003BB603B685B68BA681343BB60D6
:103848007B681B68BA689A607B68012283F83D2010
:103858007B68002283F83C20002318461437BD46B5
:103868005DF8047B704700BF000001400004004081
:1038780000080040000C00400040014080B483B0C4
:1038880000AF786000BF0C37BD465DF8047B704719
:1038980080B483B000AF786000BF0C37BD465DF8D8
:1038A800047B704780B582B000AF78607B68002BDE
:1038B80001D101233FE07B6893F83D30DBB2002B58
:1038C80006D17B68002283F83C207868FDF718FB56
:1038D8007B68242283F83D207B681B68DA687B6854
:1038E8001B6822F40052DA60786800F0DFFD7B681C
:1038F8001B681A697B681B6822F490421A617B680E
:103908001B685A697B681B6822F02A025A617B6827
:103918001B68DA687B681B6842F40052DA607B68CF
:1039280000221A647B68202283F83D207B682022CD
:1039380083F83E20002318460837BD4680BD80B571
:103948008AB002AFF860B9603B601346FB80002381
:103958007B61FB6893F83D30DBB2202B7CD1BB68E0
:10396800002B02D0FB88002B01D1012375E0FB68F6
:1039780093F83C30012B01D102236EE0FB68012251
:1039880083F83C20FB6800221A64FB68212283F834
:103998003D20FDF7F7FB7861FB68FA889A84FB689D
:1039A800FA88DA84FB689B68B3F5805F08D1FB6806
:1039B8001B69002B04D10023FB61BB68BB6103E0DA
:1039C800BB68FB610023BB61FB68002283F83C20D5
:1039D8002AE03B6800937B6900228021F86800F0A8
:1039E8001FFB0346002B01D0032336E0FB69002BA5
:1039F8000BD1BB691B881A46FB681B68C2F3080217
:103A08005A60BB690233BB6107E0FB691A78FB683F
:103A18001B685A60FB690133FB61FB68DB8C9BB256
:103A2800013B9AB2FB68DA84FB68DB8C9BB2002B03
:103A3800CFD13B6800937B6900224021F86800F0F1
:103A4800EFFA0346002B01D0032306E0FB6820228F
:103A580083F83D20002300E0022318462037BD46A6
:103A680080BD80B584B000AFF860B9601346FB80B4
:103A7800FB6893F83E30DBB2202B1DD1BB68002BCE
:103A880002D0FB88002B01D1012316E0FB6893F8D4
:103A98003C30012B01D102230FE0FB68012283F89F
:103AA8003C20FB6800221A63FB881A46B968F8684C
:103AB80000F024FB034600E0022318461037BD46F9
:103AC80080BD000080B5BAB000AF78607B681B6825
:103AD8001B68C7F8E4307B681B68DB68C7F8E03010
:103AE8007B681B685B69C7F8DC300023C7F8D830EF
:103AF8000023C7F8D430D7F8E43003F00F03C7F831
:103B0800D830D7F8D830002B0FD1D7F8E43003F0ED
:103B18002003002B09D0D7F8E03003F02003002B56
:103B280003D0786800F007FC56E2D7F8D830002BAD
:103B380000F0DE80D7F8DC3003F00103002B06D15B
:103B4800D7F8E03003F49073002B00F0D180D7F859
:103B5800E43003F00103002B0BD0D7F8E03003F476
:103B68008073002B05D07B681B6C43F001027B68D7
:103B78001A64D7F8E43003F00403002B0BD0D7F80D
:103B8800DC3003F00103002B05D07B681B6C43F08D
:103B980002027B681A64D7F8E43003F00203002BB2
:103BA8000BD0D7F8DC3003F00103002B05D07B687D
:103BB8001B6C43F004027B681A64D7F8E43003F006
:103BC8000803002B11D0D7F8E03003F02003002BB6
:103BD80005D1D7F8DC3003F00103002B05D07B6852
:103BE8001B6C43F008027B681A647B681B6C002B13
:103BF80000F0ED81D7F8E43003F02003002B08D063
:103C0800D7F8E03003F02003002B02D0786800F0EA
:103C180092FB7B681B685B6903F04003402B0CBF79
:103C280001230023DBB2C7F8D4307B681B6C03F098
:103C38000803002B03D1D7F8D430002B4FD0786875
:103C480000F09AFA7B681B685B6903F04003402B1D
:103C580041D17B681B681433C7F89C30D7F89C3077
:103C680053E8003FC7F89830D7F8983023F040035E
:103C7800C7F8D0307B681B681433D7F8D020C7F852
:103C8800A820C7F8A430D7F8A410D7F8A82041E88E
:103C98000023C7F8A030D7F8A030002BD9D17B6813
:103CA8009B6B002B13D07B689B6B7D4A1A657B68E6
:103CB8009B6B1846FEF716F90346002B16D07B6857
:103CC8009B6B1B6D7A68926B104698470EE078687C
:103CD80000F090F90AE0786800F08CF906E078685E
:103CE80000F088F97B6800221A6470E100BF6EE179
:103CF8007B681B6B012B40F04A81D7F8E43003F056
:103D08001003002B00F04381D7F8E03003F01003D4
:103D1800002B00F03C810023BB607B681B681B689C
:103D2800BB607B681B685B68BB60BB687B681B68A3
:103D38005B6903F04003402B40F0B4807B689B6BC9
:103D48001B685B68A7F8BE30B7F8BE30002B00F0E0
:103D580040817B689B8DB7F8BE209A4280F03981FC
:103D68007B68B7F8BE20DA857B689B6BDB69B3F5A7
:103D7800807F00F088807B681B680C33C7F8883028
:103D8800D7F8883053E8003FC7F88430D7F8843034
:103D980023F48073C7F8B8307B681B680C33D7F8F6
:103DA800B820C7F89420C7F89030D7F89010D7F803
:103DB800942041E80023C7F88C30D7F88C30002BCA
:103DC800D9D17B681B6814337B677B6F53E8003F4E
:103DD8003B673B6F23F00103C7F8B4307B681B686F
:103DE8001433D7F8B420C7F88020FB67F96FD7F8E9
:103DF800802041E80023BB67BB6F002BE1D17B68C3
:103E08001B6814333B663B6E53E8003FFB65FB6D54
:103E180023F04003C7F8B0307B681B681433D7F829
:103E2800B020FA66BB66B96EFA6E41E800237B667D
:103E38007B6E002BE3D17B68202283F83E207B68D1
:103E480000221A637B681B680C33FB64FB6C53E825
:103E5800003FBB64BB6C23F01003C7F8AC307B6831
:103E68001B680C33D7F8AC20BA657B65796DBA6DE1
:103E780041E800233B653B6D002BE3D17B689B6BDE
:103E88001846FDF7BFFF7B689A8D7B68DB8D9BB278
:103E9800D31A9BB21946786800F0B6F899E000BFCB
:103EA800474200087B689A8D7B68DB8D9BB2D31AEA
:103EB800A7F8CE307B68DB8D9BB2002B00F08B809F
:103EC800B7F8CE30002B00F086807B681B680C3377
:103ED800BB63BB6B53E8003F7B637B6B23F490733E
:103EE800C7F8C8307B681B680C33D7F8C8207A64D9
:103EF8003B64396C7A6C41E80023FB63FB6B002B55
:103F0800E3D17B681B6814337B627B6A53E8003F0C
:103F18003B623B6A23F00103C7F8C4307B681B6827
:103F28001433D7F8C4203A63FB62F96A3A6B41E864
:103F38000023BB62BB6A002BE3D17B68202283F895
:103F48003E207B6800221A637B681B680C333B6148
:103F58003B6953E8003FFB60FB6823F01003C7F898
:103F6800C0307B681B680C33D7F8C020FA61BB618E
:103F7800B969FA6941E800237B617B69002BE3D1C9
:103F8800B7F8CE301946786800F03EF823E0D7F845
:103F9800E43003F08003002B09D0D7F8E03003F0B9
:103FA8008003002B03D0786800F05DF914E0D7F89F
:103FB800E43003F04003002B0ED0D7F8E03003F0D4
:103FC8004003002B08D0786800F09DF904E000BF9A
:103FD80002E000BF00E000BFE837BD4680BD00BF7B
:103FE80080B483B000AF786000BF0C37BD465DF881
:103FF800047B704780B483B000AF786000BF0C3793
:10400800BD465DF8047B704780B483B000AF78602C
:104018000B467B8000BF0C37BD465DF8047B7047BC
:1040280080B590B000AFF860B9603B601346FB7193
:1040380050E0BB6CB3F1FF3F4CD0BB6C002B07D0FA
:10404800FDF7A0F802463B68D31ABA6C9A4241D2EF
:10405800FB681B680C33BB62BB6A53E8003F7B629A
:104068007B6A23F4D073FB63FB681B680C33FA6B21
:104078007A633B63396B7A6B41E80023FB62FB6A26
:10408800002BE5D1FB681B6814337B617B6953E81F
:10409800003F3B613B6923F00103BB63FB681B687E
:1040A8001433BA6B3A62FB61F9693A6A41E8002352
:1040B800BB61BB69002BE5D1FB68202283F83D205A
:1040C800FB68202283F83E20FB68002283F83C200E
:1040D80003230FE0FB681B681A68BB681340BA68C3
:1040E8009A420CBF01230023DBB21A46FB799A429D
:1040F8009FD0002318464037BD4680BD80B485B0A8
:1041080000AFF860B9601346FB80FB68BA689A6232
:10411800FB68FA889A85FB68FA88DA85FB680022CA
:104128001A64FB68222283F83E20FB68002283F889
:104138003C20FB681B69002B07D0FB681B68DA680A
:10414800FB681B6842F48072DA60FB681B685A6976
:10415800FB681B6842F001025A61FB681B68DA6859
:10416800FB681B6842F02002DA6000231846143707
:10417800BD465DF8047B704780B495B000AF7860A9
:104188007B681B680C337B637B6B53E8003F3B63A6
:104198003B6B23F49073FB647B681B680C33FA6CED
:1041A8003A64FB63F96B3A6C41E80023BB63BB6B71
:1041B800002BE5D17B681B6814333B623B6A53E8EC
:1041C800003FFB61FB6923F00103BB647B681B684C
:1041D8001433BA6CFA62BB62B96AFA6A41E800231E
:1041E8007B627B6A002BE5D17B681B6B012B19D1A5
:1041F8007B681B680C33FB60FB6853E8003FBB60BF
:10420800BB6823F010037B647B681B680C337A6CF3
:10421800BA617B617969BA6941E800233B613B690E
:10422800002BE5D17B68202283F83E207B680022A2
:104238001A6300BF5437BD465DF8047B704780B5EC
:1042480084B000AF78607B689B6BFB60FB680022E2
:10425800DA85FB680022DA84F868FFF7CBFE00BF36
:104268001037BD4680BD80B485B000AF78607B68EC
:1042780093F83D30DBB2212B3ED17B689B68B3F5C8
:10428800805F14D17B681B69002B10D17B681B6A87
:10429800FB60FB681B881A467B681B68C2F3080230
:1042A8005A607B681B6A9A1C7B681A6208E07B6804
:1042B8001B6A591C7A6811621A787B681B685A60F5
:1042C8007B68DB8C9BB2013B9BB27A681946D18430
:1042D800002B0FD17B681B68DA687B681B6822F0AB
:1042E8008002DA607B681B68DA687B681B6842F0CA
:1042F8004002DA60002300E0022318461437BD4666
:104308005DF8047B704780B582B000AF78607B6849
:104318001B68DA687B681B6822F04002DA607B68F9
:10432800202283F83D207868FFF75AFE00231846BC
:104338000837BD4680BD80B58CB000AF78607B681B
:1043480093F83E30DBB2222B40F0AB807B689B6851
:10435800B3F5805F17D17B681B69002B13D100234D
:10436800FB627B689B6ABB627B681B685B689BB26D
:10437800C3F308039AB2BB6A1A807B689B6A9A1CCB
:104388007B689A6226E07B689B6AFB620023BB62BB
:104398007B689B68B3F5805F07D07B689B68002BC0
:1043A8000AD17B681B69002B06D17B681B685B6898
:1043B800DAB2FB6A1A7008E07B681B685B68DBB2DC
:1043C80003F07F03DAB2FB6A1A707B689B6A5A1C97
:1043D8007B689A627B68DB8D9BB2013B9BB27A68F3
:1043E8001946D185002B5AD17B681B68DA687B682F
:1043F8001B6822F02002DA607B681B68DA687B6839
:104408001B6822F48072DA607B681B685A697B68D3
:104418001B6822F001025A617B68202283F83E2043
:104428007B681B6B012B35D17B6800221A637B6884
:104438001B680C337B617B6953E8003F3B613B6938
:1044480023F010037B627B681B680C337A6A3A623C
:10445800FB61F9693A6A41E80023BB61BB69002B3B
:10446800E5D17B681B681B6803F01003102B0AD189
:104478000023FB607B681B681B68FB607B681B680C
:104488005B68FB60FB687B689B8D19467868FFF763
:10449800BBFD02E07868FCF7D5FB002302E00023AF
:1044A80000E0022318463037BD4680BD2DE9B04FE5
:1044B800C0B000AFC7F8F400D7F8F4301B681B6928
:1044C80023F44050D7F8F430D968D7F8F4301A6894
:1044D80040EA01031361D7F8F4309A68D7F8F4304A
:1044E8001B691A43D7F8F4305B691A43D7F8F430DC
:1044F800DB691343C7F8F830D7F8F4301B68DB687A
:1045080023F4164121F00C01D7F8F4301A68D7F8D3
:10451800F8300B43D360D7F8F4301B685B6923F499
:104528004070D7F8F4309969D7F8F4301A6840EA3F
:1045380001035361D7F8F4301A688F4B9A4205D0BB
:10454800D7F8F4301A688D4B9A4204D1FEF750FD23
:10455800C7F8FC0003E0FEF737FDC7F8FC00D7F802
:10456800F430DB69B3F5004F40F00C81D7F8FC302C
:104578000022C7F8E830C7F8EC20D7E93A452246C8
:104588002B469118B9655B41FB65D7E9162321468F
:1045980012EB0108294643EB01094FF000024FF0E6
:1045A80000034FEAC90343EA58734FEAC80290462A
:1045B8009946234618EB0303C7F8E0302B4649EB2E
:1045C8000303C7F8E430D7F8F4305B680022C7F873
:1045D800D830C7F8DC20D7E936120B46DB183B6524
:1045E800134642EB03037B65D7E91423D7E9380167
:1045F800FBF7EEFD02460B46614BA3FB02235B096A
:104608001C01D7F8FC300022C7F8D030C7F8D420F6
:10461800D7E9348942464B469118B9645B41FB643B
:10462800D7E91223414612EB010A494643EB010B35
:104638004FF000024FF000034FEACB0343EA5A73EE
:104648004FEACA0292469B4643461AEB0303C7F851
:10465800C8304B464BEB0303C7F8CC30D7F8F430DF
:104668005B680022C7F8C030C7F8C420D7E9301209
:104678000B46DB183B64134642EB03037B64D7E924
:104688001023D7E93201FBF7A3FD02460B4611467A
:104698003B4BA3FB01235B09642202FB03F3CB1A08
:1046A800DB0003F13202364BA3FB02235B095B00FC
:1046B80003F4F8731C44D7F8FC300022C7F8B8306C
:1046C800C7F8BC20D7E92E8942464B469118B963F2
:1046D8005B41FB63D7E90E234146511839634946CC
:1046E8004B417B634FF000024FF00003D7E90CAB5E
:1046F8005946CB00514643EA51735146CA00104609
:104708001946034642469B18C7F8B0304B460A463E
:1047180042EB0303C7F8B430D7F8F4305B680022E3
:10472800C7F8A830C7F8AC20D7E92A120B46DB181F
:10473800BB62134642EB0303FB62D7E90A23D7E9BE
:104748002C01FBF745FD02460B460D4BA3FB02135C
:104758005B09642101FB03F3D31ADB003233084AF7
:10476800A2FB03235B0903F00702D7F8F4301B68A8
:1047780022449A6006E100BF001001400014014085
:104788001F85EB51D7F8FC300022C7F8A030C7F8D6
:10479800A420D7E9288942464B46911839625B41E3
:1047A8007B62D7E9082341465418494643EB010583
:1047B8004FF000024FF00003EB0043EA5473E200AD
:1047C80014461D464346E318C7F898304B4645EB58
:1047D8000303C7F89C30D7F8F4305B680022C7F8A9
:1047E8009030C7F894204FF000024FF00003D7E94B
:1047F800244529468B00214643EA917321468A00C5
:10480800D7E92601FBF7E4FC02460B46604BA3FB05
:1048180002235B091C01D7F8FC300022C7F8883056
:10482800C7F88C20D7E9228942464B469118B961CE
:104838005B41FB61D7E90623414651183961494676
:104848004B417B614FF000024FF00003D7E904AB06
:104858005946CB00514643EA51735146CA001046A7
:104868001946034642469B18C7F880304B460A460D
:1048780042EB0303C7F88430D7F8F4305B680022B2
:10488800BB67FA674FF000024FF00003D7E91E89B3
:1048980049468B00414643EA917341468A00D7E96D
:1048A8002001FBF795FC02460B461146384BA3FB4B
:1048B80001235B09642202FB03F3CB1A1B01323389
:1048C800334AA2FB03235B0903F0F0031C44D7F827
:1048D800FC3000223B677A67D7E91C8942464B4681
:1048E8009118B9605B41FB60D7E902234146511832
:1048F800396049464B417B604FF000024FF000039E
:10490800D7E900AB5946CB00514643EA51735146AB
:10491800CA0010461946034642469B18BB664B46DA
:104928000A4642EB0303FB66D7F8F4305B680022C3
:104938003B667A664FF000024FF00003D7E918890A
:1049480049468B00414643EA917341468A00D7E9BC
:104958001A01FBF73DFC02460B460D4BA3FB021365
:104968005B09642101FB03F3D31A1B013233084AA4
:10497800A2FB03235B0903F00F02D7F8F4301B688E
:1049880022449A6000BF07F58077BD46BDE8B08F26
:104998001F85EB5102440346934200D1704703F848
:1049A800011BF9E770B50D4D0D4C641BA4100026D2
:1049B800A64209D10B4D0C4C00F018F8641BA4104A
:1049C8000026A64205D170BD55F8043B984701362C
:1049D800EEE755F8043B98470136F2E7344A0008F9
:1049E800344A0008344A0008384A0008F8B500BFBD
:1049F800F8BC08BC9E467047F8B500BFF8BC08BCB8
:044A08009E4670470F
:104A0C000000000000000000010203040607080972
:104A1C000000000001020304000610160006101628
:084A2C00DCB7FF7F0100000070
:044A3400BD010008B8
:044A380099010008D8
:104A3C0048656C6C6F20576F726C640A0001010141
:0C4A4C000024F400100000000100000035
:040000050800106D72
:00000001FF
